:10000000021088020006C2AFD2AF32021440C2AF63
:10001000D2AF3202000E75F901E4F580F590F5A03B
:06002000F5B022020FF70B
:10002B0002002EC0E0C0D075D000C000C006C2C612
:10003B00780EE6FE08E64E6006E61618700116D03E
:0B004B0006D000D0D0D0E03202139CA1
:03005B000212EEA0
:030063000213EE97
:10006B000213457B017A9F795A909F517401F07F5F
:07007B00007E50120D6D2202
:10008300020F5AE4909F5EF0A3F07B017A9F795EA2
:10009300909F5804F07F207E50120E70A291E4339B
:1000A300FF909F5CE4F0A3EFF0A3E0FEA3E04E70AB
:1000B30004D2908002C290909F5CE0FEA3E04E6069
:1000C30019909F3FE4F0A304F0FB7A9F793F909F40
:1000D30051F07F307E50120D6D22E4909F3FF0A3CC
:1000E300F07B017A9F793F909F5104F07F307E50DF
:0400F300120D6D225B
:1000F800FFFF4457494E54350210CF02044BE864C1
:1001080080F8E933E83360110460F0ED33EC3370C4
:1001180009E8FCE9FDEAFEEBFF220460DED3EB9F71
:10012800EA9EE99DE8C2E78CF0C2F795F0400CE83A
:10013800CCF8E9CDF9EACEFAEBCFFB12041685D05C
:10014800F05804700320D5B3E80470075002B2D504
:1001580002045592D5EC0460F7E4CCC0E0C398F8EB
:10016800603B94186008400DD0E0FB02042DE4FBCE
:10017800FAC9FC8028E830E406E4C9FBE4CAFCE8D4
:1001880030E305E4C9CACBFCE854076010F8C3E9BA
:1001980013F9EA13FAEB13FBEC13FCD8F130F52F43
:1001A800C3E49CFCEF9BFFEE9AFEED99FDD0E0FBCB
:1001B800EF4E4D4C701222DB03020452EC2CFCEF84
:1001C80033FFEE33FEED33FDED30E7EB02042DEFA8
:1001D8002BFFEE3AFEED39FDD0E0FB50130BBB00D0
:1001E80003020455ED13FDEE13FEEF13FFEC13FCB1
:1001F80002042DEC4D6011E8497017ED33EC33041F
:10020800600DE4FCFFFEFD22E933E8330470F802D8
:10021800044B12041658046009E4CC2481500628C3
:100228005009020455284003020452C0E0EB4A700A
:1002380044B98006D0E0FB020441EF4E701CBD803B
:1002480008EBFFEAFEE9FD80EBE98DF0A4FEE5F09E
:100258000202E4E9CDF9EAFEEBFFEF89F0A4FCE540
:10026800F0CE89F0A42EFFE435F0CD89F0A42DFE60
:10027800E435F08067EF4E7005BD80D780C3EF8B03
:10028800F0A4ACF0EE8BF0A42CFCE435F0F8EF8A87
:10029800F0A42CE5F038FCE433CB8DF0A42CFCE57D
:1002A800F03BF8EE8AF0A42CFCE5F038F8E433CF04
:1002B80089F0A42CFCE5F038CF3400CE89F0A42FC7
:1002C800FFE5F03EFEE433C98DF0A42EFEE5F039DB
:1002D800CD8AF0A42FFFE5F03EFEE43DFD33D0E0EB
:1002E800FB50070BBB000F020455EC2CFCEF33FF4F
:1002F800EE33FEED33FD02042D020455EC5D04607F
:1003080005E85904700302044B120416580460F6F9
:10031800EC4860F2EC7004FDFEFF22C860DB24812B
:10032800C85009C398600250060204529850CAF592
:1003380082E9294B4A7005AB8202044175F0007CC2
:100348001A7880C3EF9BEE9AED99400DC3EF9BFF9F
:10035800EE9AFEED99FDE842F0DC23ACF0D0E0FF28
:10036800D0E0FED0E0FDAB8220E7101BEB60BAECDA
:100378002CFCEF33FFEE33FEED33FD02042DE803D2
:10038800F830E705C0F075F000EF2FFFEE33FEED13
:1003980033FD40B830E7C280AA75F020800E75F0B2
:1003A80010800575F0087D007E007F003392D530FF
:1003B800D503120709EC334010EF33FFEE33FEED9F
:1003C80033FDEC33FCD5F0ED22E5F0247EA2D51305
:1003D800CC92E7CDCEFF22EDD2E7CD33EC3392D5E8
:1003E80024814006E4FFFEFDFC22FCE4CFCECDCC08
:1003F80024E0501174FF80EDC3CC13CCCD13CDCEC7
:1004080013CECF13CF0470F030D5DE020709E9D23E
:10041800E7C933E833F892D5EDD2E7CD33EC33FCB6
:100428005002B2D522EC30E7100FBF000C0EBE0010
:10043800080DBD00040BEB6014A2D5EB13FCED9284
:10044800E7FD2274FFFCFDFEFF22E480F8A2D574CC
:10045800FF13FC7D80E480EFE709F608DFFA8046A9
:10046800E709F208DFFA803E88828C83E709F0A367
:10047800DFFA8032E309F608DFFA8078E309F20848
:10048800DFFA807088828C83E309F0A3DFFA806446
:1004980089828A83E0A3F608DFFA805889828A83F2
:1004A800E0A3F208DFFA804C80D280FA80C680D4BC
:1004B800806980F28033801080A680EA809A80A8C4
:1004C80080DA80E280CA803389828A83ECFAE493F6
:1004D800A3C8C582C8CCC583CCF0A3C8C582C8CC84
:1004E800C583CCDFE9DEE7800D89828A83E493A3A4
:1004F800F608DFF9ECFAA9F0EDFB2289828A83EC91
:10050800FAE0A3C8C582C8CCC583CCF0A3C8C5820D
:10051800C8CCC583CCDFEADEE880DB89828A83E445
:1005280093A3F208DFF980CC88F0EF60010E4E60EB
:10053800C388F0ED2402B4040050B9F582EB24021C
:10054800B4040050AF23234582239004B073BB0149
:100558000689828A83E0225002E722BBFE02E32258
:1005680089828A83E49322BB010CE58229F582E51E
:10057800833AF583E0225006E92582F8E622BBFE9D
:1005880006E92582F8E222E58229F582E5833AF533
:1005980083E49322BB010689828A83F0225002F702
:1005A80022BBFE01F322EF8DF0A4A8F0CF8CF0A4BB
:1005B80028CE8DF0A42EFE22C5F0F8A3E028F0C5C1
:1005C800F0F8E582158270021583E038F022A3F86E
:1005D800E0C5F025F0F0E582158270021583E0C8C9
:1005E80038F0E822E88FF0A4CC8BF0A42CFCE98E3C
:1005F800F0A42CFC8AF0EDA42CFCEA8EF0A4CDA883
:10060800F08BF0A42DCC3825F0FDE98FF0A42CCD8B
:1006180035F0FCEB8EF0A4FEA9F0EB8FF0A4CFC56B
:10062800F02ECD39FEE43CFCEAA42DCE35F0FDE4F5
:100638003CFC2275F008758200EF2FFFEE33FECDEB
:1006480033CDCC33CCC58233C5829BED9AEC99E58A
:100658008298400CF582EE9BFEED9AFDEC99FC0F1A
:10066800D5F0D6E4CEFBE4CDFAE4CCF9A88222B8E2
:1006780000C1B90059BA002DEC8BF084CFCECDFC67
:10068800E5F0CBF97818EF2FFFEE33FEED33FDECF4
:1006980033FCEB33FB10D703994004EB99FB0FD8DD
:1006A800E5E4F9FA227818EF2FFFEE33FEED33FD7B
:1006B800EC33FCC933C910D7059BE99A4007EC9B7A
:1006C800FCE99AF90FD8E0E4C9FAE4CCFB2275F00A
:1006D80010EF2FFFEE33FEED33FDCC33CCC833C81B
:1006E80010D7079BEC9AE899400AED9BFDEC9AFC21
:1006F800E899F80FD5F0DAE4CDFBE4CCFAE4C8F9D0
:1007080022C3E49FFFE49EFEE49DFDE49CFC22E8F6
:100718006010ECA2E713FCED13FDEE13FEEF13FFE0
:10072800D8F022E0FCA3E0FDA3E0FEA3E0FF22E076
:10073800F8A3E0F9A3E0FAA3E0FB22ECF0A3EDF0C4
:10074800A3EEF0A3EFF022A8828583F0D083D082B5
:10075800120766120766120766120766E473E493C7
:10076800A3C583C5F0C583C8C582C8F0A3C583C522
:10077800F0C583C8C582C822A42582F582E5F03574
:1007880083F58322E0FBA3E0FAA3E0F922F8E0FB7B
:10079800A3A3E0F925F0F0E582158270021583E045
:1007A800FA38F022EBF0A3EAF0A3E9F022D083D0E4
:1007B80082F8E4937012740193700DA3A393F874F4
:1007C8000193F5828883E4737402936860EFA3A3AE
:1007D800A380DFEF4E6012EF60010EEDBB010B89C5
:1007E800828A83F0A3DFFCDEFA2289F05007F7093A
:1007F800DFFCA9F022BBFEFCF309DFFCA9F0229084
:100808009F41EEF0A3EFF0A3ECF0A3EDF0E4909F8E
:1008180049F0A3F074FFA3F0A3F0A312074F000060
:100828000000E4909F45F0A3F0909F43E0FEA3E012
:10083800FFA3E0FCA3E0C39FEC9E40030208E29004
:100848009F41E0FEA3E0FF12150E909F47EEF0A334
:10085800EFF0909F4D12072BC004C005C006C007DB
:10086800909F47E0FCA3E0FDE41203A6A804A905B5
:10087800AA06AB07D007D006D005D00412010A900B
:100888009F4D120743909F49E0FEA3E0FF909F47CA
:10089800E0FCA3E0D39FEC9E400E909F47E0FEA3B0
:1008A800E0FFA3EEF0A3EFF0909F4BE0FEA3E0FF84
:1008B800909F47E0FCA3E0C39FEC9E5010909F4799
:1008C800E0FEA3E0FF909F4BEEF0A3EFF0909F4572
:1008D800E475F0011205C0020831909F43E0FEA3C1
:1008E800E0D39402EE94004055909F49E0FCA3E0C9
:1008F800FDE41203A6A804A905AA06AB07909F4D1C
:1009080012072B120106C004C005C006C007909F3D
:100918004BE0FCA3E0FDE41203A6A804A905AA067F
:10092800AB07D007D006D005D004120106909F4D22
:10093800120743909F4374FF75F0FE1205C0909F05
:1009480043E0FCA3E0FDE41203A6A804A905AA0657
:10095800AB07909F4D12072B120304E4FBFAF978BA
:100968003F12010A1203DF909F47EEF0A3EFF090C9
:100978009F47E0FEA3E0FF22909F4CEFF0A31207F1
:10098800ACE4909F51F0909F50E0FFA3E0C39F40DC
:1009980003020A28909F4DE475F00112079512058D
:1009A80056FF909F4CE0FE75F00890810F1207806B
:1009B800EE75F005A42583F583E0FE909F4CE0FDDD
:1009C80075F008908111120780ED75F005A4258354
:1009D800F583E5822EF582E43583F583EFF0909F69
:1009E8004CE0FF75F00890810F120780EF75F00555
:1009F800A42583F583E004F0909F4CE0FF75F00890
:100A080090810F120780EF75F005A42583F583E028
:100A180075F00084E5F0F0909F51E004F002098E33
:100A2800909F4CE01207B50A3F020A69030A900436
:100A38000AB70500000ADD908B20E06003020ADD9A
:100A480004F0908B1EE02421F582E4348BF583E0DA
:100A5800F599908B1EE004F0E075F00084E5F0F065
:100A680022909028E0706E04F0909026E02429F5FA
:100A780082E43490F583E0F59C909026E004F0E061
:100A880075F00084E5F0F022909530E0704704F0AE
:100A980090952EE02431F582E43495F583E0F59EB7
:100AA80090952EE004F0E075F00084E5F0F02290D7
:100AB8009A38E0702004F0909A36E02439F582E400
:100AC800349AF583E0F5AC909A36E004F0E075F0DE
:100AD8000084E5F0F022909F44EEF0A3EFF0A3EC41
:100AE800F0A3EDF07BFF7A16794278487C9F7D0170
:100AF8007E007F04120530909F44E0FEA3E0D3946B
:100B080064EE94004009909F44E4F0A37464F0906C
:100B18009F44E0FEA3E0FFFBAA06E4F9F87F997E74
:100B2800997D0CFC12148B7808120717909F4AEFD6
:100B3800F0909F44E0FEA3E0FFFBAA06E4F9F87FEB
:100B4800997E997D0CFC12148B909F4BEFF07B01E2
:100B58007A9F7948909F517402F07F867E00120D2B
:100B68006D909F44E0FCA3E0FDE41203A6E4FBFAC9
:100B780079C87842120304E4FBFA79C87842120172
:100B8800FBE4FBFAF9783F12010A1203DF909F4455
:100B9800EEF0A3EFF07B017A9F7944909F517401A6
:100BA800F07F927E00120D6D909F44E0FEA3E0FF5F
:100BB800FBAA06E4F9F87F997E997D0CFC12148B48
:100BC800A804A905AA06AB07909F46E0FEA3E0FF8C
:100BD800E4FCFD1205ECE47B64FAF9F812148B903E
:100BE8009F46EEF0A3EFF0909F46E0FEA3E0EE9064
:100BF8009F61F0909F46A3E0909F62F0909F61E014
:100C0800FF909F60E02FFF909F62E02FFFA3E02FEF
:100C1800FFA3E02FA3F07B017A9F7960909F507427
:100C280006F07F0312098022429F5A0000429F5C0F
:100C38000000429F5E0000020C0000020E00004609
:100C48009F60AA01204242004680005AA503824FB5
:100C58004B60FF80065AA500834F4B000000000040
:100C6800000000000000000000000000000000007C
:100C7800000000000000000000000000000000006C
:100C8800000000000000000000000000000000005C
:100C9800000000000000000000000000000000004C
:100CA800000000000000000000000000000000003C
:100CB800000000000000000000000000000000002C
:100CC800000000000000000000000000000000001C
:100CD800000000000000000000000000000000000C
:100CE80000000000000000000000000000000000FC
:100CF80000000000000000000000000000000000EC
:100D080000000000000000000000000000000000DB
:100D180000000000000000000000000000000000CB
:100D280000000000000000000000000000000000BB
:100D380000000000000000000000000000000000AB
:100D4800000000000000000000000000000000009B
:100D580000000000419F3E004981055AA5068325F1
:100D68000001000000909F4CEEF0A3EFF0A31207E3
:100D7800ACC2AF909F4CE0FEA3E0EEC313F5F29037
:100D88009F4CE0FEA3E0FFEEC313EF13F5F375F4F9
:100D98000175F88F30FCFD909F4CE0A3E030E03700
:100DA800E4F5F475F8AFD2FE20FEFD75F40175F890
:100DB8008F909F4EE475F001120795120556F5FCC9
:100DC800909F4EE475F001120795120556F5FDD275
:100DD800FE909F51E014F0909F51E0FFC313A3F0E1
:100DE800909F52E0FF14F0EF6040909F4EE475F042
:100DF80001120795120556F5FA909F4EE475F00119
:100E0800120795120556F5FB909F4EE475F00112F6
:100E18000795120556F5FC909F4EE475F0011207F0
:100E280095120556F5FDD2FE80B6909F51E030E050
:100E380031E4F5F475F8AFD2FE20FEFD75F40175C6
:100E4800F88F909F4EE475F001120795120556F53C
:100E5800FA909F4EE475F001120795120556F5FBBE
:100E6800D2FEE4F5F8D2AF22909F53EEF0A3EFF054
:100E7800A31207ACC2AF909F53E0FEA3E0EEC313EA
:100E8800F5F2909F53E0FEA3E0FFEEC313EF13F5D6
:100E9800F375F40175F8AF30FCFD909F53E0A3E0C3
:100EA80030E029D2FE20FEFD909F55E475F0011236
:100EB8000795E5FC12059C909F55E475F001120713
:100EC80095E5FD12059C909F58E014F0909F58E01E
:100ED800FFC313A3F0909F59E0FF14F0EF6043D2D3
:100EE800FE20FEFD909F55E475F001120795E5FA86
:100EF80012059C909F55E475F001120795E5FB12C9
:100F0800059C909F55E475F001120795E5FC1205C4
:100F18009C909F55E475F001120795E5FD12059C1C
:100F280080B3909F58E030E023D2FE20FEFD909FD2
:100F380055E475F001120795E5FA12059C909F5546
:100F4800E475F001120795E5FB12059CE4F5F8D26B
:100F5800AF22C0E0C0F0C083C082C0D075D000C04E
:100F680000C006C007C2AFE59B30E036759B505302
:100F78009BFE90912C7401F090912B7403F090914A
:100F880029E0FEA3E0242DF58274913EF583E59CCB
:100F9800F0909129E475F0011205C0909129E05470
:100FA80003F0E59B30E135759B50539BFD909026EF
:100FB800E0FFA3E06F6020909026E02429F582E40A
:100FC8003490F583E0F59C909026E004F0E075F00D
:100FD8000084E5F0F08005909028E4F0D2AFD007C7
:100FE800D006D000D0D0D082D083D0F0D0E032C0AC
:100FF800E0C0F0C083C082C0D075D000C000C00679
:10100800C007C2AF309832C298908C247401F09017
:101018008C21E0FEA3E02425F582748C3EF583E55F
:1010280099F0908C21E475F0011205C0908C21E0B4
:101038005403F0908C237403F0309931C299908B4B
:101048001EE0FFA3E06F6020908B1EE02421F58254
:10105800E4348BF583E0F599908B1EE004F0E0759D
:10106800F00084E5F0F08005908B20E4F0D2AFD05A
:1010780007D006D000D0D0D082D083D0F0D0E032D4
:10108800787FE4F6D8FD75810F0210CF021585E44C
:1010980093A3F8E493A34003F68001F208DFF480F9
:1010A80029E493A3F85407240CC8C333C4540F4449
:1010B80020C8834004F456800146F6DFE4800B0123
:1010C80002040810204080900C30E47E019360BC3C
:1010D800A3FF543F30E509541FFEE493A360010EBB
:1010E800CF54C025E060A840B8E493A3FAE493A3E2
:1010F800F8E493A3C8C582C8CAC583CAF0A3C8C503
:1011080082C8CAC583CADFE9DEE780BE909F3F1266
:101118000743909F3F1207377F007E387D317C0060
:10112800120677C3E49FFF74049E909F43F0A3EFD9
:10113800F043C9407D04E4FF1212837D05E4FF12E9
:10114800121475985075D880909F43E0FEA3E0EE86
:10115800F5BA909F43E0A3E0F5AAD2ACD2AFE490F1
:101168008B1EF0A3F0A3F0908C21F0A3F0A3F0A3C2
:10117800F07E01FFFD7B017A8B79211207DB7E046B
:101188007F007D007B017A8C79251207DB22909FF6
:101198003F120743909F3F1207377F007E707D62A2
:1011A8007C00120677C3E49FFF74049E909F43F06F
:1011B800A3EFF043C9207D06E4FF1212837D07E404
:1011C800FF121214759B50909F43E0FEA3E0EEF5CA
:1011D800BB909F43E0A3E0F59D439A01E4909026DD
:1011E800F0A3F0A3F0909129F0A3F0A3F0A3F07E70
:1011F80001FFFD7B017A9079291207DB7E047F00CD
:101208007D007B017A91792D1207DB22909F45EFB3
:10121800F0A3EDF0909F45E01207B5123300124796
:1012280001125B02126F0300001282909F46E0FFDA
:101238007401A807088002C333D8FCF452B722907F
:101248009F46E0FF7401A807088002C333D8FCF466
:1012580052BC22909F46E0FF7401A807088002C391
:1012680033D8FCF452BD22909F46E0FF7401A807D2
:10127800088002C333D8FCF452BE22909F45EFF099
:10128800A3EDF0909F45E01207B512A20012B50138
:1012980012C80212DB03000012ED909F46E0FF74B3
:1012A80001A807088002C333D8FC42B722909F46A2
:1012B800E0FF7401A807088002C333D8FC42BC22AF
:1012C800909F46E0FF7401A807088002C333D8FC4A
:1012D80042BD22909F46E0FF7401A807088002C320
:1012E80033D8FC42BE22C0E0C0F0C083C082C0D068
:1012F80075D000C000C006C2AF5397FE90963474F4
:1013080001F09096337403F0909631E0FEA3E02448
:1013180035F58274963EF583E59FF0909631E47535
:10132800F0011205C0909631E05403F0D2AFD00618
:10133800D000D0D0D082D083D0F0D0E032C0E0C08E
:10134800F0C083C082C0D075D000C000C006C2AF54
:1013580053ABFE909B3C7401F0909B3B7403F09060
:101368009B39E0FEA3E0243DF582749B3EF583E5BE
:10137800ADF0909B39E475F0011205C0909B39E0FF
:101388005403F0D2AFD006D000D0D0D082D083D0D2
:10139800F0D0E032C0E0C0F0C083C082C0D075D0C9
:1013A80000C007C2AF5396FE90952EE0FFA3E06FF2
:1013B800602090952EE02431F582E43495F583E0A1
:1013C800F59E90952EE004F0E075F00084E5F0F0CD
:1013D8008005909530E4F0D2AFD007D0D0D082D03D
:1013E80083D0F0D0E032C0E0C0F0C083C082C0D06B
:1013F80075D000C007C2AF53A7FE909A36E0FFA38E
:10140800E06F6020909A36E02439F582E4349AF54A
:1014180083E0F5AC909A36E004F0E075F00084E5DE
:10142800F0F08005909A38E4F0D2AFD007D0D0D051
:1014380082D083D0F0D0E032C0E0C0F0C083C08258
:10144800C0D075D000C000C006758CBC758ACD7838
:101458000D06E618700106780CE6FE08E6B4E814F6
:10146800EEB40310187600087600909F5AE475F0E1
:10147800011205C0D006D000D0D0D082D083D0F0E1
:10148800D0E032C2D5E830E70FB2D5E4C39BFBE425
:101498009AFAE499F9E498F8EC30E717B2D51214FF
:1014A800C1120677E4C39BFBE49AFAE499F9E4983D
:1014B800F8800312067730D50DE4C39FFFE49EFE43
:1014C800E49DFDE49CFC22909F3FEFF07BFF7A16A1
:1014D800793E78407C9F7D017E007F041205309024
:1014E8009F3FE0909F41F07B017A9F7940909F5108
:1014F8007402F07F867E00120D6D7D287C007F646B
:101508007E00120ADE22909F51EEF0A3EFF0909F2A
:1015180051E0FEA3E02432FFE43EFE7B017A9F798E
:1015280051909F587401F0120E70909F51E0FEA3E5
:10153800E0FF227D0A7C007F017E00120807909F51
:101548003FEEF0A3EFF07B017A9F793F909F5174B3
:1015580001F07F107E50120D6D227B017A9F795E1B
:10156800909F587401F07F407E50120E70909F5EDD
:10157800E0FCA3E0FD7F647E00120ADE221215D093
:101588007D327C007F647E00120ADE12008612150E
:101598003B12156212006E80F222E4F58E75C87057
:1015A800F59375940175950275C96075F901F5F89B
:1015B800227F007EC27D017C001211147F007E9C78
:1015C8007D187C00121196221215FC121623121691
:1015D800107FFF1214CFE4909F5AF0A3F02275C831
:1015E80070E4F5CDF5CC75CBBC75CACD43A820D237
:1015F800C8D2AF22C2AF1215A212163212001612AA
:1016080015B91215E6D2AF225389FC438901758CAE
:10161800BC758ACDD2A9D2AFD28C227D017F0112AE
:101628001214E4FD7F0112128322E4F5A8F5B8F53F
:0E1638009AF5A9F5B9225A0100645A01204220
:00000001FF
