:10000000020BDA020006C2AFD2AF32020DDAC2AF83
:10001000D2AF3202000E75F901E4F580F590F5A03B
:06002000F5B022020B49BD
:10002B0002002EC0E0C0D075D000C000C006C2C612
:10003B007810E6FE08E64E6006E61618700116D03C
:0B004B0006D000D0D0D0E032020F66DB
:03005B00020EB8DA
:03006300020FB8D1
:10006B00020F0FC2AF1210D912115212001612103A
:07007B00F0121107D2AF22C1
:10008300020AAC909F45EFF0A3EDF0909F45E0127C
:1000930005B200A50000B90100CD0200E103000094
:1000A30000F4909F46E0FF7401A807088002C33361
:1000B300D8FCF452B722909F46E0FF7401A80708CA
:1000C3008002C333D8FCF452BC22909F46E0FF74F5
:1000D30001A807088002C333D8FCF452BD22909FC5
:1000E30046E0FF7401A807088002C333D8FCF4522A
:0200F300BE222B
:1000F800FFFF4457494E5435020C21020345E8647A
:1001080080F8E933E83360110460F0ED33EC3370C4
:1001180009E8FCE9FDEAFEEBFF220460DED3EB9F71
:10012800EA9EE99DE8C2E78CF0C2F795F0400CE83A
:10013800CCF8E9CDF9EACEFAEBCFFB12031085D063
:10014800F05804700320D5B3E80470075002B2D504
:1001580002034F92D5EC0460F7E4CCC0E0C398F8F2
:10016800603B94186008400DD0E0FB020327E4FBD5
:10017800FAC9FC8028E830E406E4C9FBE4CAFCE8D4
:1001880030E305E4C9CACBFCE854076010F8C3E9BA
:1001980013F9EA13FAEB13FBEC13FCD8F130F52F43
:1001A800C3E49CFCEF9BFFEE9AFEED99FDD0E0FBCB
:1001B800EF4E4D4C701222DB0302034CEC2CFCEF8B
:1001C80033FFEE33FEED33FDED30E7EB020327EFAF
:1001D8002BFFEE3AFEED39FDD0E0FB50130BBB00D0
:1001E8000302034FED13FDEE13FEEF13FFEC13FCB8
:1001F80002032702034FEC5D046005E8590470030D
:10020800020345120310580460F6EC4860F2EC70E3
:1002180004FDFEFF22C860DB2481C85009C3986032
:1002280002500602034C9850CAF582E9294B4A70DD
:1002380005AB8202033B75F0007C1A7880C3EF9B04
:10024800EE9AED99400DC3EF9BFFEE9AFEED99FDF6
:10025800E842F0DC23ACF0D0E0FFD0E0FED0E0FDD7
:10026800AB8220E7101BEB60BAEC2CFCEF33FFEEFF
:1002780033FEED33FD020327E803F830E705C0F04D
:1002880075F000EF2FFFEE33FEED33FD40B830E799
:10029800C280AA75F020800E75F010800575F008F0
:1002A8007D007E007F003392D530D5031204CBEC5D
:1002B800334010EF33FFEE33FEED33FDEC33FCD566
:1002C800F0ED22E5F0247EA2D513CC92E7CDCEFF47
:1002D80022EDD2E7CD33EC3392D524814006E4FFFA
:1002E800FEFDFC22FCE4CFCECDCC24E0501174FFFF
:1002F80080EDC3CC13CCCD13CDCE13CECF13CF040A
:1003080070F030D5DE0204CBE9D2E7C933E833F820
:1003180092D5EDD2E7CD33EC33FC5002B2D522ECC6
:1003280030E7100FBF000C0EBE00080DBD00040B17
:10033800EB6014A2D5EB13FCED92E7FD2274FFFCF1
:10034800FDFEFF22E480F8A2D574FF13FC7D80E453
:1003580080EFBB010689828A83E0225002E722BB34
:10036800FE02E32289828A83E49322BB010CE582A0
:1003780029F582E5833AF583E0225006E92582F8DB
:10038800E622BBFE06E92582F8E222E58229F5820B
:10039800E5833AF583E49322BB010689828A83F0D8
:1003A800225002F722BBFE01F322EF8DF0A4A8F041
:1003B800CF8CF0A428CE8DF0A42EFE22C5F0F8A391
:1003C800E028F0C5F0F8E582158270021583E03860
:1003D800F022A3F8E0C5F025F0F0E582158270025E
:1003E8001583E0C838F0E822EF2BFFEE3AFEED392E
:1003F800FDEC38FC2275F008758200EF2FFFEE3314
:10040800FECD33CDCC33CCC58233C5829BED9AEC7F
:1004180099E58298400CF582EE9BFEED9AFDEC99E9
:10042800FC0FD5F0D6E4CEFBE4CDFAE4CCF9A882F3
:1004380022B800C1B90059BA002DEC8BF084CFCE98
:10044800CDFCE5F0CBF97818EF2FFFEE33FEED3356
:10045800FDEC33FCEB33FB10D703994004EB99FB1D
:100468000FD8E5E4F9FA227818EF2FFFEE33FEED06
:1004780033FDEC33FCC933C910D7059BE99A400713
:10048800EC9BFCE99AF90FD8E0E4C9FAE4CCFB222A
:1004980075F010EF2FFFEE33FEED33FDCC33CCC8F3
:1004A80033C810D7079BEC9AE899400AED9BFDECFE
:1004B8009AFCE899F80FD5F0DAE4CDFBE4CCFAE43D
:1004C800C8F922C3E49FFFE49EFEE49DFDE49CFC82
:1004D80022EB9FF5F0EA9E42F0E99D42F0E89C4548
:1004E800F022E6FC08E6FD08E6FE08E6FF22E0FC4E
:1004F800A3E0FDA3E0FEA3E0FF22E6FB08E6F9087F
:10050800E6FA08E6CBF822E0F8A3E0F9A3E0FAA3BC
:10051800E0FB22ECF608EDF608EEF608EFF622EC22
:10052800F0A3EDF0A3EEF0A3EFF022D083D082E4A5
:1005380093F608740193F608740293F6087403930B
:10054800F6740473A8828583F0D083D08212056381
:10055800120563120563120563E473E493A3C5836C
:10056800C5F0C583C8C582C8F0A3C583C5F0C583D7
:10057800C8C582C822A42582F582E5F03583F583B3
:1005880022E0FBA3E0FAA3E0F922F8E0FBA3A3E052
:10059800F925F0F0E582158270021583E0FA38F04B
:1005A80022EBF0A3EAF0A3E9F022D083D082F8E4AA
:1005B800937012740193700DA3A393F8740193F5CB
:1005C800828883E4737402936860EFA3A3A380DF37
:1005D800EF4E6012EF60010EEDBB010B89828A833A
:1005E800F0A3DFFCDEFA2289F05007F709DFFCA947
:1005F800F022BBFEFCF309DFFCA9F022909F41EE3C
:10060800F0A3EFF0A3ECF0A3EDF0E4909F49F0A382
:10061800F074FFA3F0A3F0A312054C00000000E45F
:10062800909F45F0A3F0909F43E0FEA3E0FFA3E076
:10063800FCA3E0C39FEC9E40030206DF909F41E0CD
:10064800FEA3E0FF12103E909F47EEF0A3EFF0905C
:100658009F4D1204F6C004C005C006C007909F470E
:10066800E0FCA3E0FDE41202A0A804A905AA06ABD9
:1006780007D007D006D005D00412010A909F4D126A
:100688000527909F49E0FEA3E0FF909F47E0FCA369
:10069800E0D39FEC9E400E909F47E0FEA3E0FFA3AF
:1006A800EEF0A3EFF0909F4BE0FEA3E0FF909F4792
:1006B800E0FCA3E0C39FEC9E5010909F47E0FEA390
:1006C800E0FF909F4BEEF0A3EFF0909F45E475F0AC
:1006D800011203C402062E909F43E0FEA3E0D394C8
:1006E80002EE94004055909F49E0FCA3E0FDE4121F
:1006F80002A0A804A905AA06AB07909F4D1204F60C
:10070800120106C004C005C006C007909F4BE0FC5C
:10071800A3E0FDE41202A0A804A905AA06AB07D02D
:1007280007D006D005D004120106909F4D12052768
:10073800909F4374FF75F0FE1203C4909F43E0FC42
:10074800A3E0FDE41202A0A804A905AA06AB07903D
:100758009F4D1204F61201FEE4FBFAF9783F1201EC
:100768000A1202D9909F47EEF0A3EFF0909F47E05E
:10077800FEA3E0FF22429F5A0000429F5C00004215
:100788009F5E000002100000429F600000449F62CC
:10079800000003E8040C000000004680005AA5038E
:1007A800824F4B60FF80065AA500834F4B00000024
:1007B8000000000000000000000000000000000031
:1007C8000000000000000000000000000000000021
:1007D8000000000000000000000000000000000011
:1007E8000000000000000000000000000000000001
:1007F80000000000000000000000000000000000F1
:1008080000000000000000000000000000000000E0
:1008180000000000000000000000000000000000D0
:1008280000000000000000000000000000000000C0
:1008380000000000000000000000000000000000B0
:1008480000000000000000000000000000000000A0
:100858000000000000000000000000000000000090
:100868000000000000000000000000000000000080
:100878000000000000000000000000000000000070
:100888000000000000000000000000000000000060
:100898000000000000000000000000000000000050
:1008A800000000000000419F3E004981055AA5064E
:1008B80083250001000000909F41EEF0A3EFF0A314
:1008C8001205A9C2AF909F41E0FEA3E0EEC313F565
:1008D800F2909F41E0FEA3E0FFEEC313EF13F5F3A0
:1008E80075F40175F88F30FCFD909F41E0A3E0306E
:1008F800E037E4F5F475F8AFD2FE20FEFD75F4019B
:1009080075F88F909F43E475F00112059212035A0F
:10091800F5FC909F43E475F00112059212035AF515
:10092800FDD2FE909F46E014F0909F46E0FFC3136F
:10093800A3F0909F47E0FF14F0EF6040909F43E4DE
:1009480075F00112059212035AF5FA909F43E47567
:10095800F00112059212035AF5FB909F43E475F0DB
:100968000112059212035AF5FC909F43E475F001B9
:1009780012059212035AF5FDD2FE80B6909F46E00A
:1009880030E031E4F5F475F8AFD2FE20FEFD75F4E1
:100998000175F88F909F43E475F0011205921203D8
:1009A8005AF5FA909F43E475F00112059212035A22
:1009B800F5FBD2FEE4F5F8D2AF22909F53EEF0A3F8
:1009C800EFF0A31205A9C2AF909F53E0FEA3E0EE9B
:1009D800C313F5F2909F53E0FEA3E0FFEEC313EFBD
:1009E80013F5F375F40175F8AF30FCFD909F53E0F3
:1009F800A3E030E029D2FE20FEFD909F55E475F07B
:100A080001120592E5FC1203A0909F55E475F001D0
:100A1800120592E5FD1203A0909F58E014F0909FF4
:100A280058E0FFC313A3F0909F59E0FF14F0EF6064
:100A380043D2FE20FEFD909F55E475F00112059209
:100A4800E5FA1203A0909F55E475F001120592E5AE
:100A5800FB1203A0909F55E475F001120592E5FC86
:100A68001203A0909F55E475F001120592E5FD125E
:100A780003A080B3909F58E030E023D2FE20FEFD13
:100A8800909F55E475F001120592E5FA1203A090C3
:100A98009F55E475F001120592E5FB1203A0E4F5F9
:100AA800F8D2AF22C0E0C0F0C083C082C0D075D0F9
:100AB80000C000C006C007C2AFE59B30E036759B9A
:100AC80050539BFE90912C7401F090912B7403F07D
:100AD800909129E0FEA3E0242DF58274913EF583E0
:100AE800E59CF0909129E475F0011203C4909129D6
:100AF800E05403F0E59B30E135759B50539BFD9026
:100B08009026E0FFA3E06F6020909026E02429F56E
:100B180082E43490F583E0F59C909026E004F0E0C0
:100B280075F00084E5F0F08005909028E4F0D2AFED
:100B3800D007D006D000D0D0D082D083D0F0D0E07B
:100B480032C0E0C0F0C083C082C0D075D000C00001
:100B5800C006C007C2AF309832C298908C24740186
:100B6800F0908C21E0FEA3E02425F582748C3EF5FC
:100B780083E599F0908C21E475F0011203C4908C00
:100B880021E05403F0908C237403F0309931C2991A
:100B9800908B1EE0FFA3E06F6020908B1EE0242165
:100BA800F582E4348BF583E0F599908B1EE004F030
:100BB800E075F00084E5F0F08005908B20E4F0D239
:100BC800AFD007D006D000D0D0D082D083D0F0D01C
:100BD800E032787FE4F6D8FD758111020C2102110C
:100BE80043E493A3F8E493A34003F68001F208DFFB
:100BF800F48029E493A3F85407240CC8C333C454DD
:100C08000F4420C8834004F456800146F6DFE48090
:100C18000B010204081020408090077DE47E0193B8
:100C280060BCA3FF543F30E509541FFEE493A36062
:100C3800010ECF54C025E060A840B8E493A3FAE4BD
:100C480093A3F8E493A3C8C582C8CAC583CAF0A30E
:100C5800C8C582C8CAC583CADFE9DEE780BE909FDF
:100C68003F120527909F3F12050F7F007E387D3188
:100C78007C00120439C3E49FFF74049E909F43F0E4
:100C8800A3EFF043C9407D04E4FF120E4D7D05E457
:100C9800FF12008675985075D880909F43E0FEA398
:100CA800E0EEF5BA909F43E0A3E0F5AAD2ACD2AF4C
:100CB800E4908B1EF0A3F0A3F0908C21F0A3F0A396
:100CC800F0A3F07E01FFFD7B017A8B79211205D814
:100CD8007E047F007D007B017A8C79251205D8225D
:100CE800909F3F120527909F3F12050F7F007E704F
:100CF8007D627C00120439C3E49FFF74049E909FB8
:100D080043F0A3EFF043C9207D06E4FF120E4D7DAA
:100D180007E4FF120086759B50909F43E0FEA3E016
:100D2800EEF5BB909F43E0A3E0F59D439A01E49064
:100D38009026F0A3F0A3F0909129F0A3F0A3F0A3DC
:100D4800F07E01FFFD7B017A9079291205D87E0497
:100D58007F007D007B017A91792D1205D822E490DD
:100D68009F5EF0A3F07B017A9F795E909F5804F014
:100D78007F207E501209C2A293E433FF909F5CE467
:100D8800F0A3EFF0A3E0FEA3E04E7004D29080023F
:100D9800C290909F5CE0FEA3E04E701A909F3FF0D7
:100DA800A304F0D291FB7A9F793F909F46F07F3061
:100DB8007E501208BF22E4909F3FF0A3F0C2917BBF
:100DC800017A9F793F909F4604F07F307E50120849
:100DD800BF22C0E0C0F0C083C082C0D075D000C0C0
:100DE80000C001C002C003C004C005C006C007752A
:100DF8008CBC758ACD780C1204EAE47B01FAF9F808
:100E08001203F0780C12051B909F621204F6780CFE
:100E1800120502C31204D97011780C1205330000B0
:100E28000000909F60E4F0A304F0D007D006D0053E
:100E3800D004D003D002D001D000D0D0D082D0834B
:100E4800D0F0D0E032909F45EFF0A3EDF0909F45B1
:100E5800E01205B20E6C000E7F010E92020EA50381
:100E680000000EB7909F46E0FF7401A807088002B3
:100E7800C333D8FC42B722909F46E0FF7401A8070D
:100E8800088002C333D8FC42BC22909F46E0FF741E
:100E980001A807088002C333D8FC42BD22909F46B0
:100EA800E0FF7401A807088002C333D8FC42BE22C1
:100EB800C0E0C0F0C083C082C0D075D000C000C000
:100EC80006C2AF5397FE9096347401F0909633742F
:100ED80003F0909631E0FEA3E02435F58274963E47
:100EE800F583E59FF0909631E475F0011203C49004
:100EF8009631E05403F0D2AFD006D000D0D0D082E3
:100F0800D083D0F0D0E032C0E0C0F0C083C082C04F
:100F1800D075D000C000C006C2AF53ABFE909B3C5A
:100F28007401F0909B3B7403F0909B39E0FEA3E0C2
:100F3800243DF582749B3EF583E5ADF0909B39E442
:100F480075F0011203C4909B39E05403F0D2AFD07E
:100F580006D000D0D0D082D083D0F0D0E032C0E02C
:100F6800C0F0C083C082C0D075D000C007C2AF53E4
:100F780096FE90952EE0FFA3E06F602090952EE0FE
:100F88002431F582E43495F583E0F59E90952EE0C2
:100F980004F0E075F00084E5F0F08005909530E409
:100FA800F0D2AFD007D0D0D082D083D0F0D0E0320A
:100FB800C0E0C0F0C083C082C0D075D000C007C2F6
:100FC800AF53A7FE909A36E0FFA3E06F6020909A97
:100FD80036E02439F582E4349AF583E0F5AC909A4A
:100FE80036E004F0E075F00084E5F0F08005909AB2
:100FF80038E4F0D2AFD007D0D0D082D083D0F0D0B0
:10100800E03212006E1210BC12111D7FE87E037DC3
:10101800007C00121130D290C291C292E4909F5A83
:10102800F0A3F07B017A9F795A909F4604F07F00E5
:101038007E501208BF22909F51EEF0A3EFF0909FD0
:1010480051E0FEA3E02432FFE43EFE7B017A9F7963
:1010580051909F587401F01209C2909F51E0FEA36D
:10106800E0FF2212115EEF4E6022121167909F5A24
:10107800E475F0011203C4B2927B017A9F795A9009
:101088009F467401F07F007E501208BF227D647C69
:10109800007F017E00120604909F3FEEF0A3EFF060
:1010A8007B017A9F793F909F467401F07F107E50B4
:1010B8001208BF22E4FD7F01120E4D7D017F01124F
:1010C8000E4D7D027F01120E4D7D037F01120086B9
:1010D80022E4F58E75C870F59375940175950275BF
:1010E800C96075F901F5F8227F007EC27D017C0098
:1010F800120C667F007E9C7D187C00120CE822751D
:10110800C870E4F5CDF5CC75CBBC75CACD43A82025
:10111800D2C8D2AF225389FC438901758CBC758A29
:10112800CDD2A9D2AFD28C22909F3F120527909F93
:101138003F1204F6909F621205272212100A120D20
:101148006612109512106B80F522E4F5A8F5B8F533
:101158009AF5A9F5B922909F60E0FEA3E0FF22E48A
:07116800909F60F0A3F0224C
:00000001FF
